:020000040800F2
:10000000684A0020A10100087F51000881200008F3
:100010007D510008450A00088956000800000000CC
:100020000000000000000000000000003153000844
:10003000470A0008000000008151000833530008FF
:10004000BB010008BB010008BB010008BB010008A0
:10005000BB010008BB010008CD0B0008BB01000874
:10006000BB010008BB010008D50B0008BB0100085C
:10007000BB010008BB010008BB010008BB01000870
:10008000BB010008BB010008BB010008BB01000860
:10009000BB010008BB010008BB010008BB01000850
:1000A000BB010008BB010008BB010008BB01000840
:1000B000BB010008BB010008BB010008BB01000830
:1000C000BB010008BB010008BB010008BB01000820
:1000D000BB0100087D560008BB010008BB010008F9
:1000E000BB010008BB010008BB010008BB01000800
:1000F000BB010008BB010008BB010008BB010008F0
:10010000BB010008BB010008BB010008BB010008DF
:10011000BB010008BB010008BB010008BB010008CF
:10012000BB010008BB010008BB010008BB010008BF
:10013000BB010008BB010008BB010008BB010008AF
:10014000BB010008BB010008BB010008BB0100089F
:10015000BB010008BB010008BB010008BB0100088F
:10016000BB010008BB010008BB010008BB0100087F
:10017000BB010008BB010008BB0100080000000033
:10018000BB010008BB010008DFF810D000F024FB21
:100190000048004755660008AFF30080684A002019
:1001A0000648804706480047FEE7FEE7FEE7FEE711
:1001B000FEE7FEE7FEE7FEE7FEE7FEE7CD530008B9
:1001C000890100082DE9F05F0546002092469B4614
:1001D00088460646814640241BE02846414647465D
:1001E000224600F073FA53465A46C01A914110D382
:1001F00011461846224600F016F82D1A67EB010842
:100200004F4622460120002100F00DF817EB0009AF
:100210004E41201EA4F10104DFDC484631462A4647
:100220004346BDE8F09F202A04DB203A00FA02F1A1
:10023000002070479140C2F1200320FA03F31943D4
:1002400090407047202A06DBCB17203A41FA02F093
:1002500043EAE07306E041FA02F3D040C2F1200223
:100260009140084319467047D2B201E000F8012BD3
:10027000491EFBD270470022F6E710B513460A4626
:1002800004461946FFF7F0FF204610BD2DE9FE4F4A
:10029000804681EA0300C00F0C46009021F0004127
:1002A00023F00045B8EB0200A94105D240462146A3
:1002B00090461C460B46024623F00040104347D0B0
:1002C000270DC7F30A00C3F30A510290401A0190A8
:1002D00040286BDAC3F3130040F4801B0098924669
:1002E00020B10023D2EB030A63EB0B0B01985946B4
:1002F000C0F140025046FFF796FF06460D465046B5
:100300005946019AFFF79EFF10EB08006141002457
:1003100087EA115284EAE7731A4340D0009A62B325
:10032000019A012A4FEA075215DC001B61EB02011A
:100330004FF0004202EA0752CDE90042001C41F5AD
:10034000801132462B4600F0E0F903B0BDE8F08F93
:1003500040462146F9E7001B61EB0201001C41F514
:10036000801300185B412018A2F5001747EB03012A
:1003700040EAD570B6196D4111E06D084FEA3606B6
:1003800045EAC0754FEA0752001B61EB0201001CF1
:1003900041F5801149084FEA3000001951413246B9
:1003A0002B4603B0BDE8F04F00F0A0B90098012241
:1003B00040000023D0EB020263EBE073009821467B
:1003C0004FEAE074B8EB000061EB0401E9E783F069
:1003D00000435BE781F0004158E72DE9FE4F81EAD9
:1003E000030404F0004421F0004100944FF0000B9E
:1003F00023F0004350EA01045ED052EA03045BD0CC
:10040000C3F30A54C1F30A552C44A4F2F334019403
:10041000A0FB0254C1F3130141F48011C3F3130391
:1004200043F4801301FB024400FB034E840A970A45
:1004300044EA815447EA8357A4FB076802958D0A72
:1004400005FB07854FEA932C04FB0C542705029DFE
:100450004FEA065847EA1637B5EB08056EEB070C6E
:10046000870E920E47EA811742EA8312A7FB020128
:10047000B6EB0B0164EB00042B0D43EA0C335E1862
:1004800044EB1C50DA465146E7FB0201C5F3130466
:100490004FEA0B3343EA14534FEA0432019C43EA18
:1004A0000603A4F10C040294009CCDE900B400F012
:1004B0002CF903B0BDE8F08F00200146F9E72DE9E3
:1004C000F04D81EA030404F0004B21F0004514468E
:1004D0004FF0000A23F0004150EA050220D054EA10
:1004E00001021DD0C5F30A570246C5F31303C1F339
:1004F0001300C1F30A5640F4801543F48013A7EBB0
:100500000608101BD64608F2FD3873EB050002D32F
:1005100008F1010801E092185B41B8F1000F03DA1D
:1005200000200146BDE8F08D00204FF48011064602
:1005300084460EE0171B73EB050705D3121B63EB14
:10054000050306434CEA010C49084FEA30009218B3
:100550005B4150EA0107EDD152EA030012D082EA72
:10056000040083EA0501084305D0101BAB4106D205
:100570000122002306E000224FF0004302E06FF06A
:10058000010253101AEB06004CEB085110EB0A0065
:1005900041EB0B01BDE8F04D00F0A8B80EB5C10F5E
:1005A00080EAE0700844CA07002140F233438DE836
:1005B0000E000A460B4600F0A8F803B000BD0EB5C9
:1005C00040F2334102910021CDE900110A460B4669
:1005D00000F09BF803B000BD70B5C1F30A5201F002
:1005E00000450024C1F3130140F2FF3341F48011B0
:1005F0009A4201DA002070BD40F233439A42A2F2DF
:10060000334203DC524200F061F800E090402C439A
:10061000F1D0404270BDC1F30A5210B5C1F31301CD
:1006200040F2FF3341F480119A4201DA002010BDFC
:1006300040F233439A42A2F2334203DC524200F0CA
:1006400045F810BD904010BD00F0004230F0004071
:100650000AD0C10D01F56071C0F3160042EA0151E4
:10066000C208400711437047002001467047000050
:1006700030B5041E71F1000404DB4FF00044404229
:1006800064EB0101141E73F1000405DB1C464FF0FE
:100690000043524263EB0403994208BF904230BDCD
:1006A00030B50B46014600202022012409E021FA42
:1006B00002F59D4205D303FA02F5491B04FA02F53F
:1006C0002844151EA2F10102F1DC30BD202A04DB12
:1006D000203A21FA02F00021704721FA02F3D040BB
:1006E000C2F12002914008431946704710B5141E0C
:1006F00073F1000408DA401C41F1000192185B41DB
:100700001A4301D120F0010010BD2DE9F04D9246B1
:100710009B4611B1B1FA81F202E0B0FA80F22032C8
:100720009046FFF780FD04460F4640EA0A0041EA82
:100730000B0153465A46084313D0114653EA0100B1
:1007400019D0C8F140025046FFF7C0FF05460E46DB
:10075000504659464246FFF766FD084305D0012042
:1007600004E020463946BDE8F08D0020054346EA06
:10077000E0762C4337430A986305E40AA0EB0800AF
:100780000022FD0A44EA47540A3002D500200146FF
:10079000E9E7010510196941DDE9084500196941DA
:1007A000BDE8F04DA2E7C1F30A52C1F3130140F2D4
:1007B000FF3341F480119A4202DA0020014670476B
:1007C00040F233439A42A2F2334202DC5242FFF734
:1007D0007DBFFFF728BD0000064C074D06E0E0682E
:1007E00040F0010394E8070098471034AC42F6D378
:1007F000FFF7CEFC083801082838010870B58D18BD
:1008000010F8014B14F0030201D110F8012B231151
:1008100006D110F8013B03E010F8016B01F8016B01
:10082000521EF9D1ABB110F8012B04F00C048A1A56
:100830000C2C03D0A2EB84129B1C08E010F8014B97
:10084000A2EB0422F8E712F8014B01F8014B5B1E02
:10085000F9D5A942D4D3002070BD000070B50B4C6F
:10086000054600220421204600F0E7FC642000F049
:1008700067FB284600F0C2F8642000F061FB2046C8
:10088000BDE870400122042100F0D7BC00080240FE
:1008900010B50A2000F036FD094C01220421204643
:1008A00000F0CBFC01221146204600F0C6FC0022DD
:1008B0000221204600F0C1FCBDE8104000F002B863
:1008C0000008024070B5214C00220121204600F0B2
:1008D000B4FC01220421204600F0AFFC00220221DA
:1008E000204600F0AAFC01220221204600F0A5FCCF
:1008F0004FF47A75284600F023FB1120FFF7AEFF76
:10090000284600F01DFB0620FFF7A8FF284600F050
:1009100017FB1120FFF7A2FF284600F011FB0C4C3B
:1009200007E00021202000F01DF82070284600F08C
:1009300007FB2078732801D05328F2D10120607082
:100940002178BDE8704003A004F0A8BE0008024072
:1009500054050020E6ADA3E7A1AE49443A25640A58
:100960000000000070B5124D0E460446002204211E
:10097000284600F062FC642000F0E2FA204600F015
:100980003DF8002000F03AF8A00604D5BDE870401C
:10099000002000F033B8304600F030F8642000F05A
:1009A000CFFA01220421284600F047FC002070BD48
:1009B0000008024070B50F4D00220421284600F0C7
:1009C0003CFC0121491C0A29FCDB0B4E0024FF20C2
:1009D00000F014F83055641C092CF8DB0221491C86
:1009E0000A29FCDB2846BDE870400122042100F002
:1009F00024BC000000080240580D00200EB5012361
:100A00008DF8080000208DF804000A20009001AA4B
:100A100002A9034800F0FCFF9DF804000EBD000091
:100A2000C845002010B51020FFF718FF012211461D
:100A3000034800F002FCBDE810400A2000F073BC3F
:100A400000080240FEE770472DE9F041384D394E6D
:100A500000202DED048B82B04FF400779FED338A98
:100A600095ED040A06EB8001D1ED000AF4EEC00A10
:100A7000F1EE10FA01DDB0EE600A401CB842F1DB85
:100A8000B5EEC00A85ED040AF1EE10FA03D1B7EE17
:100A9000000A85ED040ADFED280ADFED289A00241C
:100AA000C0EE808AB2EE049A4FF49B7800EE104AB2
:100AB00006EB84004146F8EEC00AB0EE490A90ED1C
:100AC000001A00EE880AF0EE690ABCEEC00A41EE98
:100AD000680AFCEEE00A10EE900A83B210EE100AEB
:100AE00082B210EE100A80B201F0C4FB641CBC425A
:100AF000DCDB102412A0CDE9004023464FF49672AF
:100B0000C8210F2004F06FF995ED060B51EC100B86
:100B1000FFF781FD02460423C8218720009404F0DA
:100B200027F902B0BDEC048BBDE8F0810000163F50
:100B300068050020643500200000F04200009B435F
:100B400048656172746265617420726174652069C0
:100B500073000000DFED190ADFED191A70B520EE01
:100B6000201A184C81EE210A30EEC00ABCEEC00AF1
:100B700010EE100A85B22089B0F59F7F04D82B466D
:100B8000E288618901F076FBE0882081401C80B218
:100B90006581E080B0F5A07F0ED14FF6FF7001F0C7
:100BA000F3FA0020E080084C4FF4FC60206005F070
:100BB00085FC4FF47840206070BD000000001643B3
:100BC0000050C3466805002000000020012000F00E
:100BD0002BBA000010B5102000F026FA044C207843
:100BE000002803D1FFF7E6FE0120207010BD0000B1
:100BF0006A05002072B6FEE72DE9F0470446454835
:100C00002DED028BB0F900108C427FD0824604801B
:100C1000414805F0FFFD21463F4805F015FE3E48DE
:100C20009FED3E8BA0250168846800296ED0DFF817
:100C3000E490C66809F13009B44236DC4768A64240
:100C400056DB57F82400FFF7A9FC41EC100B09EB29
:100C5000C50090ED001B51EC100B53EC112BFFF76E
:100C6000BCFB53EC182BFFF711FB641C41EC180B79
:100C70006D1EE4E7D8F8040050F82400FFF78EFC5E
:100C800041EC100B09EBC50090ED001B51EC100B73
:100C900053EC112BFFF7A1FB53EC182BFFF7F6FADF
:100CA000641C41EC180B6D1E02E0076980467F1E34
:100CB000A742DFDA0024D8F8047017E057F82400C0
:100CC000FFF76CFC41EC100B09EBC50090ED001B2D
:100CD00051EC100B53EC112BFFF77FFB53EC182B4F
:100CE000FFF7D4FA41EC180B641C6D1EA642E5DA3E
:100CF00051EC180B9FED0B0B53EC102BFFF76DFB1A
:100D0000FFF76AFC00E001E0AAF80200BDEC028BEC
:100D1000BDE8F08708000020B805002000000000B2
:100D200000000000000000000000104070B51749EE
:100D3000A1222DED028BA1F1140005F063FD012429
:100D400012480021143805F07FFD641CA12CF7DD4A
:100D50004FF4FA6000F0F4F80D4D9FED0E8B0F4E3E
:100D6000002400BF05EBC40053EC182B90ED000BE2
:100D700051EC100BFFF731FB06EBC402641CC2E917
:100D80000001A12CEEDBBDEC028B70BDCC05002078
:100D900038000020000000000000F0405008002053
:100DA00030B5B3F5804F05D06FF0704140F8221098
:100DB000002030BD8C690B688D6823434C6889899D
:100DC000240144EA0524234343EA014150F8223038
:100DD000014C23401943E9E70000F0CF10B50A6841
:100DE00050F8223023F0010340F822308C68082CA0
:100DF00023D000234A682243CC681C430B6922435A
:100E00001A434B690E4C1A43CB691A430B6A1A43B7
:100E10004B6A1A438B6A1A43CB6A1A430B6B1A4309
:100E20008B691343CA6B09681A4350F82130A343F6
:100E3000134340F82130002010BD4023DAE70000C2
:100E40007FFF0F0030B5D1E9003443EA04138C680A
:100E50008D89240244EA054423430C8A094D00EBA2
:100E6000820005EB045423430C7D6D0105EB046403
:100E7000896923430B43416801F040410B434360C0
:100E8000002030BD0000F0FF2DE9F0410446876DE1
:100E900000F0D8F9064694F835000025022806D05F
:100EA0008020606584F834500120BDE8F08120681E
:100EB000016821F0160101602068416921F080017C
:100EC0004161206C08B9A06C20B12068016821F054
:100ED000080101602068016821F0010101600CE057
:100EE00000F0B0F9801B052807D920206065032099
:100EF00084F8350084F83450D7E720680068C007CC
:100F0000EED194F85C103F208840B860012084F84E
:100F1000350084F834500020C7E790F835100229D6
:100F200003D08021416501207047052180F83510EC
:100F30000068016821F00101016000207047000095
:100F400070B5044600F07EF90546601C02D00448E6
:100F50000078044400F076F9401BA042FAD370BD3B
:100F6000900500202DE9F04186B014216846FFF776
:100F700082F920480168002939D1012101601E4809
:100F80000024016841F00101016000684FF48058BD
:100F900000F001000C27CDF80080CDE90470032695
:100FA00002250396CDE901546946144800F048F83B
:100FB0004FF68070CDE9000502AA694682E8D000AC
:100FC0000F4800F03DF84CF23370CDE9000502AA5D
:100FD000694682E8D0000B4800F032F802AA694660
:100FE00082E8D000CDE90085074800F029F806B076
:100FF000BDE8F08188050020383802400014024026
:1010000000100240000C02400018024010B50128F8
:1010100007D1044CA078002803D1FFF7CBFC0120B6
:10102000A07010BD68050020044910B50A6802428E
:1010300002D00860FFF7EAFF10BD0000143C014039
:101040002DE9F84FDFF8BCA10022012503264FF05F
:101050000F090AF1040BAAF1040E00BF0B6805FA90
:1010600002F42340A34270D10F7907F00307012F48
:1010700001D0022F16D187684FEA420806FA08FC11
:1010800027EA0C07D1F80CC00CFA08FC4CEA070C54
:10109000C0F808C04768A7430C79C4F30014944013
:1010A0003C4344600C79E443A4070AD0C4684FEA87
:1010B000420C06FA0CF7BC438F6807FA0CF727437B
:1010C000C7600C7904F00304022C12D1D40800EBA1
:1010D000840CDCF820405707FF0E09FA07F824EAD1
:1010E0000804D1F8108008FA07F848EA0408CCF898
:1010F000208004684FEA420C06FA0CF7BC430F79D3
:1011000007F0030707FA0CF7274307604C6814F44D
:10111000403F70D03C4C276847F4804727602468E4
:1011200022F0030704F480440094384C07EB040CCD
:10113000DCF8084897074FEA177809FA08F7BC4324
:10114000334FB84202D1002724E054E0314FB84277
:1011500001D101271EE0304FB84201D1022719E02A
:101160002E4FB84201D1032714E02D4FB84201D1D0
:1011700004270FE02B4FB84201D105270AE02A4F80
:10118000B84201D1062705E0284FB84201D1072710
:1011900000E0082707FA08F72743CCF80878DAF8C0
:1011A00000405746D1F804C09C435FEACC2C00D5E0
:1011B0001C433C60DBF800405F46D1F804C09C4310
:1011C0005FEA8C2C00D51C433C60DEF8004077467B
:1011D000D1F804C09C435FEA8C3C00D51C433C60C2
:1011E000084F083F3C68D1F804C09C435FEACC3C00
:1011F00000D51C433C60521C102AFFF42FAFBDE801
:10120000F88F0000083C01404438024000300140A3
:10121000000002400004024000080240000C0240AE
:10122000001002400014024000180240001C02405E
:101230000069084000D0012070470AB18161704701
:101240000904FBE701488068704700009005002012
:10125000024881680278114481607047900500203F
:101260000B4810B5016841F400710160016841F458
:1012700080610160016841F480710160032000F029
:101280007FF80F2000F006F800F024F8002010BDD1
:10129000003C024070B50D4D04464FF47A71287839
:1012A000B1FBF0F00A490968B1FBF0F000F0D8FC9E
:1012B00048B9102C07D200222146501E00F040F8F9
:1012C00000206C6070BD012070BD00009005002002
:1012D0009C0500200A4808B5016841F4804101607E
:1012E000006800F4804000900548001F016841F04C
:1012F00080510160006800F08050009008BD00003F
:101300004438024000280DDB00F01F02012191400B
:101310004009800000F1E020C0F88011BFF34F8F3A
:10132000BFF36F8F7047002809DB00F01F02012117
:1013300091404009800000F1E020C0F800117047A2
:10134000F0B40E4B1B680C46C3F30223C3F1070530
:10135000042D00D90425191D072901D2002300E01E
:10136000DB1E012606FA05F1491E214099409E40E8
:10137000761E16403143F0BC04F0A0B90CED00E03D
:10138000064900F0070208684FF6FF03184040EADC
:101390000220034A10430860704700000CED00E093
:1013A0000000FA052DE9F0470E46050065D0DFF88C
:1013B0001481D8F80000F7B200F00700B04207D25D
:1013C00088F80070D8F8000000F00700B04254D14F
:1013D00028683D4C810712D5400703D5206840F4AA
:1013E000E05020602878000703D5206840F4604072
:1013F00020602068A96820F0F00008432060287869
:10140000C0072DD0304968680839012812D0022859
:1014100013D0032811D00968890700292DDA216823
:1014200021F0030101432160FFF70CFF814641F2E7
:10143000883A0EE009688903EFE709688901ECE75B
:10144000FFF700FFA0EB0901514502D90320BDE8D9
:10145000F0872068696800F00C00B0EB810FEFD1D5
:10146000D8F80010404601F00701B14207D90770D3
:10147000006800F00700B04201D00120E7E72878BB
:10148000400705D52068E96820F4E0500843206053
:101490002878000706D52068296920F4604040EAD2
:1014A000C100206000F038F82168084AC1F3031138
:1014B000515CC8400649086006480068FFF7EAFE2C
:1014C0000020C4E7003C024008380240F0AF0008AA
:1014D0009C0500209405002004480549006809681F
:1014E000044AC1F38221515CC84070479C0500202A
:1014F0000838024000B0000804480549006809683F
:10150000044AC1F34231515CC84070479C05002039
:101510000838024000B00008154810B5006810F007
:101520000C02144813D01449042A0FD0082A0ED1F3
:101530000F4C241F2268236802F03F025B0207D58C
:101540002068C0F38810A0FB010106E0084610BD2A
:101550002168C1F38811A1FB00010023FEF732FED0
:101560002168C1F30141491C4900B0FBF1F010BDF5
:10157000083802400024F40040787D012DE9F84F3E
:1015800004006ED02078DFF84C93C007A9F1040561
:101590004AD009F104000168C1F38101012908D092
:1015A0000068C0F3810002280AD1D9F80000400287
:1015B00006D52868800337D560680028E1D033E07D
:1015C0006068B0F5803F10D0B0F5A02F286810D02B
:1015D00020F480302860286820F48020286060682B
:1015E000A8B1FFF72FFE06460DE0286840F48030D2
:1015F000F4E740F480202860F7E700BFFFF722FE01
:10160000801B642873D828688003F7D50CE0FFF7A7
:1016100019FE064605E000BFFFF714FE801B642894
:10162000F0D828688003F7D42078DFF8AC828007F0
:101630004FF0000A3ED5A748001D016811F00C0FBD
:1016400008D00068C0F3810002280BD1D9F800004F
:10165000400207D42868800716D5E068012800D129
:1016600012E033E1E068B8B10120C8F80000FFF7EC
:10167000E9FD064605E000BFFFF7E4FD801B0228F8
:10168000C0D828688007F7D52868216920F0F800BD
:1016900040EAC10028600DE0C8F800A0FFF7D2FDC5
:1016A000064604E0FFF7CEFD801B02281FD82868FD
:1016B0008007F7D42078000722D5864F87486169D4
:1016C000703771B101210160FFF7BCFD064604E0EF
:1016D000FFF7B8FD801B022809D838688007F7D5C6
:1016E0000EE0C0F800A0FFF7ADFD064605E082E081
:1016F000FFF7A8FD801B02287DD838688007F7D443
:101700002078400768D5DFF8CCB100270BF13C0BFF
:10171000DBF80000C0000BD4DBF8001041F0805172
:10172000CBF80010DBF80000012700F0805000909B
:101730006B4E3068C00510D4306840F48070306063
:10174000FFF780FD009005E0FFF77CFD0099401A4F
:10175000022850D83068C005F6D55E4EA0686C36B9
:1017600001280FD00528306810D020F0010030602B
:10177000306820F004003060A068B8B1FFF762FD67
:1017800000900FE0306840F00100F4E740F0040002
:101790003060F7E7FFF756FD0099411A41F28830B3
:1017A000814266D830688007F4D50EE0FFF74AFD25
:1017B000009007E0FFF746FD0099411A41F288309A
:1017C000814256D830688007F4D42FB1DBF800107E
:1017D00021F08051CBF80010A069C8B33D49091D24
:1017E0000968C1F3810102294AD00228504607D076
:1017F000C8F8600000E03CE0FFF724FD04463BE051
:101800004746C8F86000FFF71DFD064605E000BF2B
:10181000FFF718FD801B02282BD828688001F7D419
:10182000D4E907010843A16A2E4A490802EB0141A5
:10183000626A41EA8211084394F82C1040EA01617F
:10184000C9F8001001203866FFF7FCFC044606E0EA
:101850003EE000BFFFF7F6FC001B022809D828680D
:101860008001F7D534E000BFFFF7ECFC001B022835
:1018700002D90320BDE8F88F28688001F4D427E05E
:101880000128F7D0D9F80000E26900F48001914204
:101890001CD1226A00F03F01914217D147F6C07176
:1018A000626A0140B1EB821F10D1A26A4FF0FF3390
:1018B00000F4403103EB5202B1EB024F06D194F831
:1018C0002C1000F07060B0EB016F01D00120D1E767
:1018D0000020CFE70438024000004742800E474214
:1018E000007000400000FFFF70B5040009D0606A7E
:1018F000002540B125616561A56294F8510040B1B1
:101900000CE0012070BD6068B0F5827FF4D0E56125
:10191000F2E784F85050204600F044F8022084F8A2
:1019200051002068016821F040010160A0882189F0
:1019300000F4827001F404410843A18901F40061BC
:101940000843217C01F002010843217D01F00101DF
:101950000843218B01F400710843217F01F0380115
:10196000084394F8201001F080010843218D01F410
:101970000051084321680860A069042101EA104071
:1019800094F8241001F01001084321684860206891
:10199000C16921F40061C1616565012084F85100CD
:1019A000002070BD10B586B0044614216846FEF7CD
:1019B00062FC14492068884221D113480021026842
:1019C00042F400420260006800F4004005900E48B6
:1019D0001038026842F004020260006800F004005F
:1019E00005904FF4E05000900220CDE90101032062
:1019F00003900620049069460448FFF721FB06B0D7
:101A000010BD0000003C0040403802400008024089
:101A10002DE9FF4F81B01D46934604464FF0010962
:101A20000E9EFFF70FFC074694F8510061680128ED
:101A300006D0B1F5827F3CD1A168C9BB042838D15A
:101A40000298002871D0BBF1000FFBD0002DF9D017
:101A500094F8500001282CD04FF0010A84F850A0CF
:101A600094F85100042802D0052084F851004FF06A
:101A70000008C4F85480C4F838B0E587A5870299F7
:101A80002163E586A586C4F84080C4F844802068B8
:101A90000168490603D4016841F040010160E06833
:101AA000B0F5006F606808D0F0B3012D49D081E037
:101AB000FFE7022005B0BDE8F08F08B1012D39D154
:101AC000206B21680088C860206B801C2063E08E3A
:101AD000401EE0862EE02068816889070FD5E18EE0
:101AE00069B1B9F1010F0AD1216B0988C160206B7E
:101AF000801C2063E08E401EE0864FF000092068C5
:101B00008168C9070CD0E18F51B1C068A16B088012
:101B1000A06B801CA063E08F401EE0874FF001099E
:101B2000FFF790FBC01B01E00BE067E0B04201D380
:101B3000701C50D1E08E0028CDD1E08F0028CAD192
:101B40003EE0206B216800780873206B401C206306
:101B5000E08E401EE0862DE02068816889070FD561
:101B6000E18E69B1B9F1010F0AD1216B09780173D6
:101B7000206B401C2063E08E401EE0864FF0000981
:101B800020688168C9070CD0E18F51B1C068A16B92
:101B90000870A06B401CA063E08F401EE0874FF0F0
:101BA0000109FFF74FFBC01BB04202D3701C01D0EC
:101BB00011E086B1E08E0028CED1E08F0028CBD195
:101BC0003A463146204603F021FB50B120206065A3
:101BD00084F8508012E084F851A084F850800320EB
:101BE00068E7A06818B92068C1688068009084F828
:101BF00051A084F85080606D0028F1D0012059E791
:101C000070B515460E46040003D094F8490010B193
:101C100007E0012070BD002084F84800204600F055
:101C20001DF804F108012068FFF7D8F83146A268D2
:101C30002068FFF707F9D4E901022946236BFFF773
:101C4000AFF82168A06851F8202042F0010241F865
:101C50002020012084F84900002070BDFFF782B9E0
:101C600010B5401EB0F1807F01D3012010BD4FF0B0
:101C7000E02460610F21601703F020FD0020A061C7
:101C800007202061002010BD70477047F8B501683B
:101C900004460868CA684B6910F00F0F4FF0000542
:101CA00059D003F0010602F49077374365D0C1079D
:101CB00005D0D10503D5616C41F001016164410794
:101CC00005D5D90703D0616C41F002016164810739
:101CD00005D5D90703D0616C41F0040161640107A7
:101CE00007D502F02001314303D0616C41F00801B7
:101CF0006164616C00293AD0800604D5900602D553
:101D0000204603F09AFB20684069616CC0F38010A4
:101D1000090700D460B3204603F068FB20684069DF
:101D2000400621D52068143050E8001F21F0400102
:101D300040E80012002AF5D1E06BA8B16E490165B8
:101D4000E06BFFF7EAF8002811D0E06B016D01B0FD
:101D5000BDE8F040084783060FD593060DD5204611
:101D6000BDE8F84003F069BB2046FFF78EFFF8BDE1
:101D70002046FFF78AFF6564F8BD266B2023012EFD
:101D80007DD1C6067BD5D60679D50868486800900F
:101D900048694FF00206400641D5E16B086840688B
:101DA0000004000CE8D0A28D8242E5D9E085C86924
:101DB000B0F5807F2DD020680C3050E8001F21F452
:101DC000807140E80012002AF5D12068143050E8F4
:101DD000001F21F0010140E80012002AF5D120681F
:101DE000143050E8001F21F0400140E80012002AA2
:101DF000F5D184F84230256320680C3050E8001F8C
:101E000021F0100140E80012002AF5D1E06BFFF745
:101E10003BF86663A08DE18D401A81B22AE0A08D67
:101E2000E18D401A81B2E08D0028A5D00029A3D011
:101E300022680C3252E8000F20F4907042E800074C
:101E4000002FF5D12068143050E8002F22F0010255
:101E500040E80027002FF5D184F842302563206840
:101E60000C3050E8002F22F0100240E80023002B35
:101E7000F5D166632046FFF707FFF8BDFFE70506CB
:101E80002BD5150629D594F841002128F5D1A06855
:101E9000B0F5805F01D12069B0B1206A411C216298
:101EA000216800784860E08C401E0004000CE0844B
:101EB000E3D12068C16821F08001C1602068C16859
:101EC00041F04001C160D8E7206A0088C0F30800F3
:101ED0004860206A801C2062E5E74006CDD55006A8
:101EE000CBD5CA68204622F04002CA6084F841304F
:101EF00000F0C5F8C1E70000DD53000870B504002C
:101F000004D094F84100002510B106E0012070BD16
:101F100084F84050204600F023F8242084F8410043
:101F20002068C16821F40051C160204603F0E6FA40
:101F30002068016921F4904101612068416921F024
:101F40002A0141612068C16841F40051C1606564A3
:101F5000202084F8410084F842006563002070BDB1
:101F600010B586B0044614216846FEF784F9184976
:101F70002068884229D117480021026842F01002E7
:101F80000260006800F010000590124814380268E2
:101F900042F001020260006800F0010005904FF479
:101FA000C06000900220CDE90101032003900720CA
:101FB000049069460848FFF743F80022114625209F
:101FC000FFF7BEF92520FFF7AEF906B010BD0000FF
:101FD00000100140443802400000024070472DE9E3
:101FE000F843044690F84100984616460D462028CE
:101FF00002D00220BDE8F88385B17EB10020606484
:10200000212084F84100FFF71DF9A6848146E6846B
:10201000A0682027B0F5805F02D003E00120E9E747
:10202000206910B12E4600250EE000260CE080212C
:10203000204603F0E9FAA8B9C6B116F8010B2168E9
:102040004860E08C401EE084E08C4B464FF000027C
:10205000CDF800800028EAD14FF04001204603F07F
:10206000D3FA40B184F841700320C3E735F8020B7E
:10207000C0F30800E3E784F841700020BAE7704736
:10208000FEE700000C4908808A68D1ED030A821A35
:1020900000EE102AF8EEE00A91ED011AB8EEC00A3F
:1020A00001EE200ABDEEC00A10EE102A0A614A8035
:1020B000C1E9020270470000400500202DE9F0410F
:1020C0002E4D2F4F2F4C012608B16E7001E068781D
:1020D000A0B110212046FFF7ABF8B0B1082120468F
:1020E000FFF7A6F888B104212046FFF7A1F860B1F8
:1020F00001213846FFF79CF8012806D01021204620
:10210000FFF796F8012824D035E00A20FEF718FFE3
:102110000020687010212046FFF78AF880B108215E
:102120002046FFF785F870B104212046FFF780F8BC
:1021300058B101213846FFF77BF8012807D01AE093
:102140000120BDE8F0810220FBE70320F9E704202D
:10215000F7E708212046FFF76BF801280BD104218F
:102160002046FFF765F8012805D101213846FFF721
:102170005FF800B96E700020E3E7000068050020FA
:10218000000002400010024070B50B4906460024D2
:1021900008884D8821464543204602F097FC02F00E
:1021A000A7FEB0B24FF0D84103E000BFA1F8800015
:1021B000641CAC42FAD370BDA40500202DE9F04F99
:1021C0002B492C260A46887192884FF4305A4FF4D6
:1021D000285B4FF4487541F6631E2B274FF02A0CFD
:1021E0004FF0F00845F210594FF4A0744FF4F0731B
:1021F000B8B10C80A1F802804A4532D1A1F808A0FC
:10220000A1F80AB0380288810D804B80A2F5A64063
:10221000103801D10B804C80BDE8F04F002002F057
:1022200095BBA1F800804C804A4507D1A1F808A0D1
:10223000A1F80AB04FF42C50888105E072450E8158
:1022400005D14F81A1F80CC00B804D8002E0A1F8B0
:102250000AC08F81A2F5A6401038DDD10C804B80DA
:10226000DAE70E81A1F80AC072458F81CCD0CDE7A4
:10227000A40500202DE9FE4F161ACDE900104FF0FD
:1022800000085D1A47464FF0FF30002E02DD4FF088
:10229000010102E003D14FF000018B4602E08346CA
:1022A000C6F10006002D02DD4FF0010002E003D16F
:1022B0004FF00000824602E08246C5F10005AE42C2
:1022C00001DD344600E02C46601C4FF0000902900E
:1022D00018E0009881B2019880B200F019F8B0447B
:1022E0002F44A04504DD0198A8EB04085844019050
:1022F000A74203DD00983F1B5044009009F1010004
:102300001FFA80F902998945E3DDBDE8FE8F0000E0
:1023100000B502F0DBFB02F0EBFD03484FF0D841C3
:102320000088A1F8800000BD000000202DE9F041E8
:102330009046314A0D460446060A918810462F0AF7
:102340004089A1F5AA43103B0FD0A1F5C853633BC8
:1023500024D002F0C1FD304602F0B2FDE0B202F03E
:10236000AFFD908902F0B8FD36E002F0B5FD3046D1
:1023700002F0A6FD5089401C80B202F0ADFDE0B233
:1023800002F09EFD908902F0A7FD384602F098FD0C
:102390009089401C80B202F09FFD20E0917919B92C
:1023A0001188091B491E8CB202F096FD260A3046A0
:1023B00002F086FDE0B202F083FD304602F080FDBF
:1023C000E0B202F07DFD908902F086FD384602F011
:1023D00077FDE8B202F074FD384602F071FDE8B214
:1023E00002F06EFD4FF0D840118920F87E1FA0F852
:1023F0000280BDE8F0810000A40500202DE9F05F17
:10240000D32002F069FD02F06FFAFE4A908002F0DC
:102410006BFA908002F068FA4FF6FF7A0AEA002021
:10242000908002F061FA918849F2413B0843908024
:1024300047F2897545F2103645F2105441F663179C
:10244000584564D0042002F047FD02F04DFA908018
:1024500002F04AFA908002F047FA0AEA0020D046D9
:10246000908002F041FA91880843A0F505419080E0
:10247000523949D0A8424AD0D42002F02DFD02F0B2
:1024800033FA908002F030FA908002F02DFA08EAD8
:102490000020908002F028FA918808439080B04292
:1024A00035D04FF45A4002F017FD02F01DFA90802B
:1024B0004FF45B4002F010FD02F016FA08EA00202B
:1024C00090804FF45C4002F007FD02F00DFA918815
:1024D00008439080B0F5004F7ED0A04217D0A120D5
:1024E00002F0FAFC02F000FA908002F0FDF908EA2E
:1024F0000020908002F0F8F991880843A0F5AE41E1
:102500009080613902D002E0958000E0978091468A
:102510009188BDA003F0C2F8B9F80400D846404540
:102520007ED1CF2002F0D8FC002002F0C9FCC120EF
:1025300002F0C6FC302002F0C3FCED2002F0CCFC1F
:10254000642002F0BDFC032002F0BAFC122002F06D
:10255000B7FC812002F0B4FCE82002F0BDFC85202D
:1025600002F0AEFC102002F0ABFC7A2002F0A8FCD6
:10257000CB2002F0B1FC392002F0A2FC2C2002F0AA
:102580009FFC002002F09CFC342002F099FC022009
:1025900002F096FCF72002F09FFC202002F090FC55
:1025A000EA2002F099FC002002F08AFC002002F0F0
:1025B00087FCC02002F090FC1B2002F081FCC120AF
:1025C00002F08AFC012002F07BFCC52002F084FCB2
:1025D000302002F075FC00E0B9E0302002F070FC21
:1025E000C72002F079FCB72002F06AFC362002F026
:1025F00073FC482002F064FC3A2002F06DFC552088
:1026000002F05EFCB12002F067FC002002F058FCF2
:102610001A2002F055FCB62002F05EFC0A2000E011
:1026200097E002F04DFCA22002F04AFCF22002F0FA
:1026300053FC002002F044FC262002F04DFC012057
:1026400002F03EFCE02002F047FC0F2002F038FCD4
:102650002A2002F035FC282002F032FC082002F08B
:102660002FFC0E2002F02CFC082002F029FC542044
:1026700002F026FCA92002F023FC432002F020FCFB
:102680000A2002F01DFC0F2002F01AFC002002F0CC
:1026900017FC002002F014FC002002F011FC0020C6
:1026A00002F00EFCE12002F017FC002002F008FC12
:1026B000152002F005FC172002F002FC072002F0B2
:1026C000FFFB112002F0FCFB062002F0F9FB2B209F
:1026D00002F0F6FB562002F0F3FB3C2002F0F0FB88
:1026E000052002F0EDFB102002F0EAFB0F2002F0C3
:1026F000E7FB3F2002F0E4FB3F2002F0E1FB0F206C
:1027000002F0DEFB2B2002F0E7FB002002F0D8FBFA
:10271000002002F0D5FB012002F0D2FB3F2002F0A6
:10272000CFFB2A2002F0D8FB002002F0C9FB0020DA
:1027300002F0C6FB002002F0C3FBEF2002F0C0FB5A
:10274000112002F0C9FB7820FEF7FAFBDEE094804E
:10275000DDE6A8427DD1112002F0BEFB7820FEF715
:10276000EFFB362002F0B8FB002002F0A9FB3A2074
:1027700002F0B2FB052002F0A3FBB22002F0ACFB9A
:102780000C2002F09DFB0C2002F09AFB002002F0CE
:1027900097FB332002F094FB332002F091FBB7202B
:1027A00002F09AFB352002F08BFBBB2002F094FB79
:1027B000322002F085FBC02002F08EFB0C2002F0DC
:1027C0007FFBC22002F088FB012002F079FBC320CE
:1027D00002F082FB102002F073FBC42002F07CFBAD
:1027E000202002F06DFBC62002F076FB0F2002F0E5
:1027F00067FBD02002F070FBA42002F061FBA12057
:1028000008E00000A40500204C43442049443A2538
:10281000780D0A0002F054FBE02002F05DFBD020AE
:1028200002F04EFB002002F04BFB022002F048FBBE
:10283000072002F045FB0A2002F042FB282002F0AC
:102840003FFB322002F03CFB442002F039FB4220E7
:1028500000E05EE002F034FB062002F031FB0E20C7
:1028600002F02EFB122002F02BFB142002F028FBBA
:10287000172002F025FBE12002F02EFBD02002F011
:102880001FFB002002F01CFB022002F019FB0720B6
:1028900002F016FB0A2002F013FB282002F010FBC6
:1028A000312002F00DFB542002F00AFB472002F019
:1028B00007FB0E2002F004FB1C2002F001FB172096
:1028C00002F0FEFA1B2002F0FBFA1E2002F0F8FADA
:1028D0002A2002F001FB002002F0F2FA002002F0B0
:1028E000EFFA002002F0ECFAEF2002F0E9FA2B20D8
:1028F00002F0F2FA002002F0E3FA002002F0E0FA1F
:10290000012002F0DDFA3F2002F0DAFA292001F07E
:10291000FABEB0427ED1ED2002F0DEFA012002F0D4
:10292000CFFAFE2002F0CCFAEE2002F0D5FADE203B
:1029300002F0C6FA212002F0C3FAF12002F0CCFA2C
:10294000012002F0BDFADF2002F0C6FA102002F0EA
:10295000B7FAC42002F0C0FA8F2002F0B1FAC62004
:1029600002F0BAFA002002F0ABFAE22002F0A8FA74
:10297000E22002F0A5FAE22002F0A2FABF2002F063
:10298000ABFAAA2002F09CFAB02002F0A5FA0D20C2
:1029900002F096FA002002F093FA0D2002F090FA6D
:1029A000002002F08DFA112002F08AFA002002F0D5
:1029B00087FA192002F084FA002002F081FA21201F
:1029C00002F07EFA002002F07BFA2D2002F078FA65
:1029D000002002F075FA3D2002F072FA002002F0A9
:1029E0006FFA5D2002F06CFA002002F069FA5D20B7
:1029F00002F066FA002002F063FAB12002F06CFAED
:102A0000802002F05DFA002002F05AFA8B2002F0DA
:102A100057FA00E0FDE3002002F052FA962002F09F
:102A20004FFA002002F04CFAB22002F055FA0020D2
:102A300002F046FA002002F043FA022002F040FAC7
:102A4000002002F03DFA032002F03AFA002002F0E2
:102A500037FAB32002F040FA002002F031FA0020E9
:102A600002F02EFA002002F02BFA002002F028FAE1
:102A7000002002F025FA002002F022FA002002F0E5
:102A80001FFA002002F01CFA002002F019FA0020C0
:102A900002F016FA002002F013FA002002F010FAF9
:102AA000002002F00DFA002002F00AFA002002F0E5
:102AB00007FA002002F004FA002002F001FA0020D8
:102AC00002F0FEF9002002F0FBF9002002F0F8F914
:102AD000002002F0F5F9002002F0F2F9002002F0E7
:102AE000EFF9002002F0ECF9B42002F0F5F98B20A8
:102AF00002F0E6F9002002F0E3F9962002F0E0F996
:102B0000002002F0DDF9A12002F0DAF9002002F045
:102B1000D7F9B52002F0E0F9022002F0D1F9002047
:102B200002F0CEF9032002F0CBF9002002F0C8F940
:102B3000042002F0C5F9002002F0C2F9B62002F02C
:102B4000CBF9002002F0BCF9002002F0B9F9B7205F
:102B500002F0C2F9002002F0B3F9002002F0B0F94F
:102B60003F2002F0ADF9002002F0AAF95E2002F049
:102B7000A7F9002002F0A4F9642002F0A1F90020D6
:102B800002F09EF98C2002F09BF9002002F098F9E7
:102B9000AC2002F095F9002002F092F9DC2002F05E
:102BA0008FF9002002F08CF9702002F089F90020E2
:102BB00002F086F9902002F083F9002002F080F9FB
:102BC000EB2002F07DF9002002F07AF9DC2002F01F
:102BD00077F9002002F074F9B82002F07DF90020A6
:102BE00002F06EF9002002F06BF9002002F068F9A3
:102BF000002002F065F9002002F062F9002002F0E6
:102C00005FF9002002F05CF9002002F059F9BA20C7
:102C100002F062F9242002F053F9002002F050F98A
:102C2000002002F04DF9002002F04AF9C12002F024
:102C300053F9202002F044F9002002F041F9542019
:102C400002F03EF9002002F03BF9FF2002F038F9D3
:102C5000002002F035F9C22002F03EF90A2002F00D
:102C60002FF9002002F02CF9042002F029F90020AD
:102C700002F026F9C32002F02FF93C2002F020F9DF
:102C8000002002F01DF93A2002F01AF9002002F0AB
:102C900017F9392002F014F9002002F011F9372059
:102CA00002F00EF9002002F00BF93C2002F008F9C6
:102CB000002002F005F9362002F002F9002002F0AF
:102CC000FFF8322002F0FCF8002002F0F9F82F2083
:102CD00002F0F6F8002002F0F3F82C2002F0F0F8F1
:102CE000002002F0EDF8292002F0EAF8002002F0BE
:102CF000E7F8262002F0E4F8002002F0E1F82420B2
:102D000002F0DEF8002002F0DBF8242002F0D8F810
:102D1000002002F0D5F8232002F0D2F8002002F0C3
:102D2000CFF83C2002F0CCF8002002F0C9F83620A1
:102D300002F0C6F8002002F0C3F8322002F0C0F81A
:102D4000002002F0BDF82F2002F0BAF8002002F0B7
:102D5000B7F82C2002F0B4F8002002F0B1F82920D6
:102D600002F0AEF8002002F0ABF8262002F0A8F83E
:102D7000002002F0A5F8242002F0A2F8002002F0C2
:102D80009FF8242002F09CF8002002F099F82320FC
:102D900002F096F8002002F093F8C42002F09CF8AC
:102DA000622002F08DF8002002F08AF8052002F07F
:102DB00087F8002002F084F8842002F081F80020D7
:102DC00002F07EF8F02002F07BF8002002F078F8A4
:102DD000182002F075F8002002F072F8A42002F02A
:102DE0006FF8002002F06CF8182002F069F800205B
:102DF00002F066F8502002F063F8002002F060F85C
:102E00000C2002F05DF8002002F05AF8172002F0C2
:102E100057F8002002F054F8952002F051F80020F5
:102E200002F04EF8F32002F04BF8002002F048F8D0
:102E3000E62002F045F8002002F042F8C52002F03A
:102E40004BF8322002F03CF8002002F039F8442020
:102E500002F036F8002002F033F8652002F030F876
:102E6000002002F02DF8762002F02AF8002002F06F
:102E700027F8882002F024F8002002F021F8C6206C
:102E800002F02AF8202002F01BF8002002F018F8C7
:102E9000172002F015F8002002F012F8012002F0CD
:102EA0000FF8002002F00CF8C72002F015F80020FF
:102EB00002F006F8002002F003F8002002F000F80B
:102EC000002001F0FDFFC82002F006F8002001F00C
:102ED000F7FF002001F0F4FF002001F0F1FF0020D7
:102EE00001F0EEFFC92001F0F7FF002001F0E8FF3C
:102EF000002001F0E5FF002001F0E2FF002001F0DA
:102F0000DFFF002001F0DCFF002001F0D9FF0020EE
:102F100001F0D6FF002001F0D3FF002001F0D0FF28
:102F2000002001F0CDFF002001F0CAFF002001F0D9
:102F3000C7FF002001F0C4FF002001F0C1FF002006
:102F400001F0BEFF002001F0BBFFE02001F0C4FF54
:102F5000162001F0B5FF002001F0B2FF1C2001F0A7
:102F6000AFFF002001F0ACFF212001F0A9FF0020FD
:102F700001F0A6FF362001F0A3FF002001F0A0FF22
:102F8000462001F09DFF002001F09AFF522001F041
:102F900097FF002001F094FF642001F091FF0020D2
:102FA00001F08EFF7A2001F08BFF002001F088FFF6
:102FB0008B2001F085FF002001F082FF992001F0B5
:102FC0007FFF002001F07CFFA82001F079FF0020A6
:102FD00001F076FFB92001F073FF002001F070FFCF
:102FE000C42001F06DFF002001F06AFFCA2001F04B
:102FF00067FF002001F064FFD22001F061FF002094
:1030000001F05EFFD92001F05BFF002001F058FFC6
:10301000E02001F055FF002001F052FFF32001F005
:103020004FFF002001F04CFFE12001F055FF16207A
:1030300001F046FF002001F043FF1C2001F040FF9B
:10304000002001F03DFF222001F03AFF002001F0B6
:1030500037FF362001F034FF002001F031FF45201A
:1030600001F02EFF002001F02BFF522001F028FF7D
:10307000002001F025FF642001F022FF002001F074
:103080001FFF7A2001F01CFF002001F019FF8B20A8
:1030900001F016FF002001F013FF992001F010FF4E
:1030A000002001F00DFFA82001F00AFF002001F030
:1030B00007FFB92001F004FF002001F001FFC42048
:1030C00001F0FEFE002001F0FBFECA2001F0F8FE38
:1030D000002001F0F5FED22001F0F2FE002001F008
:1030E000EFFED82001F0ECFE002001F0E9FEE02028
:1030F00001F0E6FE002001F0E3FEF32001F0E0FE27
:10310000002001F0DDFEE22001F0E6FE052001F0E6
:10311000D7FE002001F0D4FE0B2001F0D1FE0020EC
:1031200001F0CEFE1B2001F0CBFE002001F0C8FE16
:10313000342001F0C5FE002001F0C2FE442001F061
:10314000BFFE002001F0BCFE4F2001F0B9FE0020C0
:1031500001F0B6FE612001F0B3FE002001F0B0FEE8
:10316000792001F0ADFE002001F0AAFE882001F0D8
:10317000A7FE002001F0A4FE972001F0A1FE002090
:1031800001F09EFEA62001F09BFE002001F098FEBB
:10319000B72001F095FE002001F092FEC22001F060
:1031A0008FFE002001F08CFEC72001F089FE002078
:1031B00001F086FED12001F083FE002001F080FEA8
:1031C000D62001F07DFE002001F07AFEDD2001F026
:1031D00077FE002001F074FEF32001F071FE002064
:1031E00001F06EFEE32001F077FE052001F068FE9D
:1031F000002001F065FE0A2001F062FE002001F0CF
:103200005FFE1C2001F05CFE002001F059FE33201F
:1032100000E0FAE201F054FE002001F051FE4420EB
:1032200001F04EFE002001F04BFE502001F048FE60
:10323000002001F045FE622001F042FE002001F076
:103240003FFE782001F03CFE002001F039FE88208E
:1032500001F036FE002001F033FE972001F030FE31
:10326000002001F02DFEA62001F02AFE002001F032
:1032700027FEB72001F024FE002001F021FEC2202D
:1032800001F01EFE002001F01BFEC72001F018FE19
:10329000002001F015FED12001F012FE002001F007
:1032A0000FFED52001F00CFE002001F009FEDD200C
:1032B00001F006FE002001F003FEF32001F000FE05
:1032C000002001F0FDFDE42001F006FE012001F0E8
:1032D000F7FD002001F0F4FD012001F0F1FD0020D8
:1032E00001F0EEFD022001F0EBFD002001F0E8FD11
:1032F0002A2001F0E5FD002001F0E2FD3C2001F074
:10330000DFFD002001F0DCFD4B2001F0D9FD0020A5
:1033100001F0D6FD5D2001F0D3FD002001F0D0FDCD
:10332000742001F0CDFD002001F0CAFD842001F0E1
:10333000C7FD002001F0C4FD932001F0C1FD002075
:1033400001F0BEFDA22001F0BBFD002001F0B8FDA0
:10335000B32001F0B5FD002001F0B2FDBE2001F068
:10336000AFFD002001F0ACFDC42001F0A9FD00205C
:1033700001F0A6FDCD2001F0A3FD002001F0A0FD8D
:10338000D32001F09DFD002001F09AFDDD2001F029
:1033900097FD002001F094FDF32001F091FD002045
:1033A00001F08EFDE52001F097FD002001F088FD81
:1033B000002001F085FD002001F082FD002001F0D9
:1033C0007FFD022001F07CFD002001F079FD292025
:1033D00001F076FD002001F073FD3C2001F070FD4E
:1033E000002001F06DFD4B2001F06AFD002001F08E
:1033F00067FD5D2001F064FD002001F061FD742097
:1034000001F05EFD002001F05BFD842001F058FD1D
:10341000002001F055FD932001F052FD002001F045
:103420004FFDA22001F04CFD002001F049FDB3202A
:1034300001F046FD002001F043FDBE2001F040FDFB
:10344000002001F03DFDC42001F03AFD002001F014
:1034500037FDCD2001F034FD002001F031FDD320F7
:1034600001F02EFD002001F02BFDDC2001F028FDF5
:10347000002001F025FDF32001F022FD002001F0E5
:103480001FFDE62001F028FD112001F019FD0020AC
:1034900001F016FD342001F013FD002001F010FDB5
:1034A000562001F00DFD002001F00AFD762001F00C
:1034B00007FD002001F004FD772001F001FD002050
:1034C00001F0FEFC662001F0FBFC002001F0F8FC9E
:1034D000882001F0F5FC002001F0F2FC992001F0B9
:1034E000EFFC002001F0ECFCBB2001F0E9FC002027
:1034F00001F0E6FC992001F0E3FC002001F0E0FC83
:10350000662001F0DDFC002001F0DAFC552001F01E
:10351000D7FC002001F0D4FC552001F0D1FC0020A4
:1035200001F0CEFC452001F0CBFC002001F0C8FCEE
:10353000432001F0C5FC002001F0C2FC442001F052
:10354000BFFC002001F0BCFCE72001F0C5FC3220EC
:1035500001F0B6FC002001F0B3FC552001F0B0FCF6
:10356000002001F0ADFC762001F0AAFC002001F063
:10357000A7FC662001F0A4FC002001F0A1FC67205C
:1035800001F09EFC002001F09BFC672001F098FCFC
:10359000002001F095FC872001F092FC002001F052
:1035A0008FFC992001F08CFC002001F089FCBB20ED
:1035B00001F086FC002001F083FC992001F080FCE2
:1035C000002001F07DFC772001F07AFC002001F062
:1035D00077FC442001F074FC002001F071FC5620BF
:1035E00001F06EFC002001F06BFC232001F068FC70
:1035F000002001F065FC332001F062FC002001F0A6
:103600005FFC452001F05CFC002001F059FCE82043
:1036100001F062FC002001F053FC002001F050FC9E
:10362000992001F04DFC002001F04AFC872001F0B8
:1036300047FC002001F044FC882001F041FC002000
:1036400001F03EFC772001F03BFC002001F038FC4B
:10365000662001F035FC002001F032FC882001F0EA
:103660002FFC002001F02CFCAA2001F029FC0020F6
:1036700001F026FCBB2001F023FC002001F020FC1F
:10368000992001F01DFC002001F01AFC662001F0D9
:1036900017FC002001F014FC552001F011FC002063
:1036A00001F00EFC552001F00BFC002001F008FC9D
:1036B000442001F005FC002001F002FC442001F050
:1036C000FFFB002001F0FCFB552001F0F9FB00207E
:1036D00001F0F6FBE92001F0FFFBAA2001F0F0FB6E
:1036E000002001F0EDFB002001F0EAFB002001F0DA
:1036F000E7FB002001F0F0FBAA2001F0E1FBCF2066
:1037000001F0EAFB002001F0DBFB002001F0D8FB18
:10371000002001F0D5FB002001F0D2FB002001F0D9
:10372000CFFB002001F0CCFB002001F0C9FB002002
:1037300001F0C6FB002001F0C3FB002001F0C0FB3C
:10374000002001F0BDFB002001F0BAFB002001F0D9
:10375000B7FB002001F0B4FB002001F0B1FB00201A
:1037600001F0AEFB002001F0ABFBF02001F0B4FB58
:10377000002001F0A5FB502001F0A2FB002001F089
:103780009FFB002001F09CFB002001F099FBF3203F
:1037900001F0A2FB002001F093FBF92001F09CFB5B
:1037A000062001F08DFB102001F08AFB292001F09A
:1037B00087FB002001F084FB3A2001F08DFB5520AF
:1037C00001F07EFB112001F087FB6420FDF7B8FBC0
:1037D000292001F081FB352001F07EFB002001F063
:1037E0006FFB512001F078FBFF2001F069FB5320B3
:1037F00001F072FB2C2001F063FB552001F06CFB03
:10380000822001F05DFB2C20FDE3A0427ED14FF42D
:1038100070435521184601F075FB4FF20105AA21AE
:10382000284601F06FFB4FF2020B5221584601F07F
:1038300069FB0821A81C01F065FB0121E81C01F0CF
:1038400061FB0D214FF4304001F05CFB0D214BF288
:10385000010001F057FB0D214BF2020001F052FB79
:1038600034214FF4364001F04DFB34214BF201601E
:1038700001F048FB34214BF2026001F043FB0D21C3
:103880004FF4314001F03EFB0D214BF2011001F0ED
:1038900039FB0D214BF2021001F034FB34214FF4BF
:1038A000374001F02FFB34214BF2017001F02AFB6D
:1038B00034214BF2027001F025FB00214FF432401D
:1038C00001F020FB00214BF2012001F01BFB002145
:1038D0004BF2022001F016FB24214FF4384001F096
:1038E00011FB24214BF6010001F00CFB24214BF6C7
:1038F000020001F007FB01214FF43F4001F002FB01
:103900000F214FF4334001F0FDFA00E0FEE30F21F8
:103910004BF2013001F0F6FA0F214BF2023001F0C8
:10392000F1FA34214FF4394001F0ECFA34214BF62E
:10393000011001F0E7FA34214BF6021001F0E2FA2F
:1039400008214FF4354001F0DDFA08214BF2015017
:1039500001F0D8FA08214BF2025001F0D3FA03210A
:103960004FF4424001F0CEFA24214FF43A4001F0E6
:10397000C9FA24214BF6012001F0C4FA24214BF6A8
:10398000022001F0BFFA00214FF43C4001F0BAFAE6
:1039900078214BF6014001F0B5FA00214BF60240C8
:1039A00001F0B0FA00214FF43D4001F0ABFA78216C
:1039B0004BF6015001F0A6FA00214BF6025001F03F
:1039C000A1FA00214FF43E4001F09CFA64214BF62D
:1039D000016001F097FA00214FF4514001F092FA92
:1039E00033214DF2011001F08DFA00214DF2021049
:1039F00001F088FA34214DF2031001F083FA00211E
:103A00004DF2041001F07EFA3A214DF2051001F05A
:103A100079FA00214DF2061001F074FA4A214DF2B4
:103A2000071001F06FFA00214DF2081001F06AFA58
:103A30005C214DF2091001F065FA00214DF20A10E7
:103A400001F060FA81214DF20B1001F05BFA0021C8
:103A50004DF20C1001F056FAA6214DF20D1001F0B6
:103A600051FA00214DF20E1001F04CFAE5214DF211
:103A70000F1001F047FA01214DF2101001F042FA47
:103A800013214DF2111001F03DFA01214DF21210F7
:103A900001F038FA54214DF2131001F033FA0121EC
:103AA0004DF2141001F02EFA82214DF2151001F0A2
:103AB00029FA01214DF2161001F024FACA214DF223
:103AC000171001F01FFA02214DF2181001F01AFA36
:103AD00000214DF2191001F015FA02214DF21A10D1
:103AE00001F010FA01214DF21B1001F00BFA022136
:103AF0004DF21C1001F006FA34214DF21D1001F0B8
:103B000001FA02214DF21E1001F0FCF967214DF27D
:103B10001F1001F0F7F902214DF2201001F0F2F927
:103B200084214DF2211001F0EDF902214DF2221015
:103B300001F0E8F9A4214DF2231001F0E3F902218C
:103B40004DF2241001F0DEF9B7214DF2251001F0FD
:103B5000D9F902214DF2261001F0D4F9CF214DF20E
:103B6000271001F0CFF902214DF2281001F0CAF917
:103B7000DE214DF2291001F0C5F902214DF22A1083
:103B800001F0C0F9F2214DF22B1001F0BBF9022136
:103B90004DF22C1001F0B6F9FE214DF22D1001F07E
:103BA000B1F903214DF22E1001F0ACF910214DF2C4
:103BB0002F1001F0A7F903214DF2301001F0A2F906
:103BC00033214DF2311001F09DF903214DF23210F5
:103BD00001F098F96D214DF2331001F093F90021B5
:103BE0004FF4524001F08EF933214DF2012001F0E3
:103BF00089F900214DF2022001F084F934214DF2BF
:103C0000032001F07FF900214DF2042001F07AF940
:103C10003A214DF2052001F075F900214DF2062000
:103C200001F070F94A214DF2072001F06BF90021F3
:103C30004DF2082001F066F95C214DF2092001F0F7
:103C400061F900214DF20A2001F05CF981214DF269
:103C50000B2001F057F900214DF20C2001F052F930
:103C6000A6214DF20D2001F04DF900214DF20E205C
:103C700001F048F9E5214DF20F2001F043F901214F
:103C80004DF2102001F03EF913214DF2112001F008
:103C900039F901214DF2122001F034F954214DF28D
:103CA000132001F02FF901214DF2142001F02AF91F
:103CB00082214DF2152001F025F901214DF2162047
:103CC00001F020F9CA214DF2172001F01BF9022161
:103CD0004DF2182001F016F900214DF2192001F0E3
:103CE00011F902214DF21A2001F00CF901214DF2D7
:103CF0001B2001F007F902214DF21C2001F002F90E
:103D000034214DF21D2001F0FDF802214DF21E205C
:103D100001F0F8F867214DF21F2001F0F3F80221BD
:103D20004DF2202001F0EEF884214DF2212001F027
:103D3000E9F802214DF2222001F0E4F8A4214DF22D
:103D4000232001F0DFF802214DF2242001F0DAF8FF
:103D5000B7214DF2252001F0D5F802214DF22620A1
:103D600001F0D0F8CF214DF2272001F0CBF802214D
:103D70004DF2282001F0C6F8DE214DF2292001F095
:103D8000C1F802214DF22A2001F0BCF8F2214DF2D7
:103D90002B2001F0B7F802214DF22C2001F0B2F8EF
:103DA000FE214DF22D2001F0ADF803214DF22E2021
:103DB00001F0A8F810214DF22F2001F0A3F8032103
:103DC0004DF2302001F09EF833214DF2312001F008
:103DD00099F803214DF2322001F094F86D214DF253
:103DE000332001F08FF800214FF4534001F08AF89E
:103DF00033214DF2013001F085F800214DF20230FF
:103E000001F080F834214DF2033001F07BF80021FD
:103E10004DF2043001F076F83A214DF2053001F010
:103E200071F800214DF2063001F06CF84A214DF294
:103E3000073001F067F800214DF2083001F062F818
:103E40005C214DF2093001F05DF800214DF20A309D
:103E500001F058F881214DF20B3001F053F80021A8
:103E60004DF20C3001F04EF8A6214DF20D3001F06C
:103E700049F800214DF20E3001F044F8E5214DF2F1
:103E80000F3001F03FF801214DF2103001F03AF807
:103E900013214DF2113001F035F801214DF21230AD
:103EA00001F030F854214DF2133001F02BF80121CC
:103EB0004DF2143001F026F882214DF2153001F058
:103EC00021F801214DF2163001F01CF8CA214DF203
:103ED000173001F017F802214DF2183001F012F8F6
:103EE00000214DF2193001F00DF802214DF21A3087
:103EF00001F008F801214DF21B3001F003F8022116
:103F00004DF21C3000F0FEFF34214DF21D3000F068
:103F1000F9FF02214DF21E3000F0F4FF67214DF24F
:103F20001F3000F0EFFF02214DF2203000F0EAFFD9
:103F300084214DF2213000F0E5FF02214DF22230C4
:103F400000F0E0FFA4214DF2233000F0DBFF02215E
:103F50004DF2243000F0D6FFB7214DF2253000F0AD
:103F6000D1FF02214DF2263000F0CCFFCF214DF2DF
:103F7000273000F0C7FF02214DF2283000F0C2FFC9
:103F8000DE214DF2293000F0BDFF02214DF22A3032
:103F900000F0B8FFF2214DF22B3000F0B3FF022108
:103FA0004DF22C3000F0AEFFFE214DF22D3000F02E
:103FB000A9FF03214DF22E3000F0A4FF10214DF295
:103FC0002F3000F09FFF03214DF2303000F09AFFB8
:103FD00033214DF2313000F095FF03214DF23230A4
:103FE00000F090FF6D214DF2333000F08BFF002187
:103FF0004FF4544000F086FF33214DF2014000F0B1
:1040000081FF002100E07EE34DF2024000F07AFFE4
:1040100034214DF2034000F075FF00214DF20440C1
:1040200000F070FF3A214DF2054000F06BFF0021D7
:104030004DF2064000F066FF4A214DF2074000F0C5
:1040400061FF00214DF2084000F05CFF5C214DF261
:10405000094000F057FF00214DF20A4000F052FFE6
:1040600081214DF20B4000F04DFF00214DF20C403C
:1040700000F048FFA6214DF20D4000F043FF002163
:104080004DF20E4000F03EFFE5214DF20F4000F0F2
:1040900039FF01214DF2104000F034FF13214DF2A1
:1040A000114000F02FFF01214DF2124000F02AFFD5
:1040B00054214DF2134000F025FF01214DF2144030
:1040C00000F020FF82214DF2154000F01BFF01217E
:1040D0004DF2164000F016FFCA214DF2174000F0D5
:1040E00011FF02214DF2184000F00CFF00214DF2AB
:1040F000194000F007FF02214DF21A4000F002FFC4
:1041000001214DF21B4000F0FDFE00E0FEE2022125
:104110004DF21C4000F0F6FE34214DF21D4000F03F
:10412000F1FE02214DF21E4000F0ECFE67214DF23F
:104130001F4000F0E7FE02214DF2204000F0E2FEB9
:1041400084214DF2214000F0DDFE02214DF222409B
:1041500000F0D8FEA4214DF2234000F0D3FE02214E
:104160004DF2244000F0CEFEB7214DF2254000F084
:10417000C9FE02214DF2264000F0C4FECF214DF2CF
:10418000274000F0BFFE02214DF2284000F0BAFEA9
:10419000DE214DF2294000F0B5FE02214DF22A4009
:1041A00000F0B0FEF2214DF22B4000F0ABFE0221F8
:1041B0004DF22C4000F0A6FEFE214DF22D4000F005
:1041C000A1FE03214DF22E4000F09CFE10214DF285
:1041D0002F4000F097FE03214DF2304000F092FE98
:1041E00033214DF2314000F08DFE03214DF232407B
:1041F00000F088FE6D214DF2334000F083FE002177
:104200004FF4554000F07EFE33214DF2015000F096
:1042100079FE00214DF2025000F074FE34214DF27F
:10422000035000F06FFE00214DF2045000F06AFED2
:104230003A214DF2055000F065FE00214DF2065086
:1042400000F060FE4A214DF2075000F05BFE0021B5
:104250004DF2085000F056FE5C214DF2095000F07E
:1042600051FE00214DF20A5000F04CFE81214DF22A
:104270000B5000F047FE00214DF20C5000F042FEC2
:10428000A6214DF20D5000F03DFE00214DF20E50E2
:1042900000F038FEE5214DF20F5000F033FE012111
:1042A0004DF2105000F02EFE13214DF2115000F08F
:1042B00029FE01214DF2125000F024FE54214DF24E
:1042C000135000F01FFE01214DF2145000F01AFEB1
:1042D00082214DF2155000F015FE01214DF21650CD
:1042E00000F010FECA214DF2175000F00BFE022123
:1042F0004DF2185000F006FE00214DF2195000F06A
:1043000001FE02214DF21A5000F0FCFD01214DF298
:104310001B5000F0F7FD02214DF21C5000F0F2FDA1
:1043200034214DF21D5000F0EDFD02214DF21E50E2
:1043300000F0E8FD67214DF21F5000F0E3FD02217F
:104340004DF2205000F0DEFD84214DF2215000F0AE
:10435000D9FD02214DF2225000F0D4FDA4214DF2EE
:10436000235000F0CFFD02214DF2245000F0CAFD91
:10437000B7214DF2255000F0C5FD02214DF2265027
:1043800000F0C0FDCF214DF2275000F0BBFD02210F
:104390004DF2285000F0B6FDDE214DF2295000F01C
:1043A000B1FD02214DF22A5000F0ACFDF2214DF298
:1043B0002B5000F0A7FD02214DF22C5000F0A2FD81
:1043C000FE214DF22D5000F09DFD03214DF22E50A7
:1043D00000F098FD10214DF22F5000F093FD0321C5
:1043E0004DF2305000F08EFD33214DF2315000F08F
:1043F00089FD03214DF2325000F084FD6D214DF214
:10440000335000F07FFD00214FF4564000F07AFD5C
:1044100033214DF2016000F075FD00214DF2026084
:1044200000F070FD34214DF2036000F06BFD0021BF
:104430004DF2046000F066FD3A214DF2056000F097
:1044400061FD00214DF2066000F05CFD4A214DF255
:10445000076000F057FD00214DF2086000F052FDAA
:104460005C214DF2096000F04DFD00214DF20A6023
:1044700000F048FD81214DF20B6000F043FD00216A
:104480004DF20C6000F03EFDA6214DF20D6000F0F3
:1044900039FD00214DF20E6000F034FDE5214DF2B2
:1044A0000F6000F02FFD01214DF2106000F02AFD99
:1044B00013214DF2116000F025FD01214DF2126033
:1044C00000F020FD54214DF2136000F01BFD01218E
:1044D0004DF2146000F016FD82214DF2156000F0DF
:1044E00011FD01214DF2166000F00CFDCA214DF2C4
:1044F000176000F007FD02214DF2186000F002FD88
:1045000000214DF2196000F0FDFC02214DF21A600D
:1045100000F0F8FC01214DF21B6000F0F3FC0221D9
:104520004DF21C6000F0EEFC34214DF21D6000F0F5
:10453000E9FC02214DF21E6000F0E4FC67214DF21F
:104540001F6000F0DFFC02214DF2206000F0DAFC79
:1045500084214DF2216000F0D5FC02214DF2226051
:1045600000F0D0FCA4214DF2236000F0CBFC02212E
:104570004DF2246000F0C6FCB7214DF2256000F03A
:10458000C1FC02214DF2266000F0BCFCCF214DF2AF
:10459000276000F0B7FC02214DF2286000F0B2FC69
:1045A000DE214DF2296000F0ADFC02214DF22A60BF
:1045B00000F0A8FCF2214DF22B6000F0A3FC0221D8
:1045C0004DF22C6000F09EFCFE214DF22D6000F0BB
:1045D00099FC03214DF22E6000F094FC10214DF265
:1045E0002F6000F08FFC03214DF2306000F08AFC58
:1045F00033214DF2316000F085FC03214DF2326031
:1046000000F080FC6D214DF2336000F07BFC552101
:10461000184600F077FCAA21284600F073FC5221CE
:10462000584600F06FFC0821A81C00F06BFC00212C
:10463000E81C00F067FCCC214FF4314000F062FC34
:1046400000214BF2011000F05DFC05214FF43640D3
:1046500000F058FC70214FF4374000F053FC7021FB
:104660004BF2017000F04EFC01214FF4384000F095
:1046700049FC03214BF6010000F044FC03214BF6FA
:10468000020000F03FFC03214BF6030000F03AFC6F
:1046900002214FF43C4000F035FC00214BF6014074
:1046A00000F030FC00214BF6024000F02BFCD02142
:1046B0004FF4494000F026FC02214CF6011000F0B6
:1046C00021FC50214CF6021000F01CFC50214CF64D
:1046D000031000F017FC50214CF6041000F012FCFF
:1046E00000214FF4545000F00DFC55214FF4685058
:1046F00000F008FC4FF4885000F0EEFB782001F049
:104700007DFF4FF4245000F0E7FBB9E0B842FCD144
:10471000E22000F0E1FB1D2000F0D2FB022000F0BF
:10472000CFFB042000F0CCFB642001F067FFE02009
:1047300000F0D2FB012000F0C3FB0A20FCF700FCD4
:10474000E02000F0C9FB032000F0BAFB0C20FCF7CE
:10475000F7FB012000F0C0FB0A20FCF7F1FBE6208C
:1047600000F0BAFB2F2000F0ABFBFF2000F0A8FB0D
:10477000FF2000F0A5FBB02000F0AEFB202000F0F1
:104780009FFB002000F09CFB012000F099FB40F211
:10479000DF1000F095FB012000F092FB40F23F108B
:1047A00000F08EFB002000F08BFBB42000F094FBA7
:1047B000022000F085FB40F2DF2000F081FB0020AA
:1047C00000F07EFB2E2000F07BFB002000F078FB49
:1047D000002000F075FB002000F072FB002000F0CC
:1047E0006FFBB62000F078FB012000F069FB4FF46E
:1047F000B67000F065FB002000F062FB172000F0AF
:104800005FFB152000F05CFB002000F059FB00204E
:1048100000F056FBF02000F05FFB032000F050FB9F
:10482000292000F059FBD02000F056FB002000F0BA
:1048300047FBBE2000F050FB052000F041FBFE20AE
:1048400000F03EFB012000F03BFB002000F038FBB5
:10485000002000F035FB002000F032FBB82000F013
:104860003BFB032000F02CFB012000F029FBBA20C9
:1048700000F032FB012000F023FB642000F03EF842
:10488000B9F80400404505D0B04203D0A04201D0A1
:10489000B84219D14FF02040D0F81C1121F00F017F
:1048A000C0F81C11D0F81C1121F47061C0F81C1163
:1048B000D0F81C1141F00301C0F81C11D0F81C11F4
:1048C00041F40071C0F81C110020FDF777FC0122B3
:1048D000D1030448FCF7B1FC5046BDE8F05FFDF79A
:1048E00053BC00000004024008B54FF0D840B0F8B7
:1048F0008000ADF80000BDF8000008BD10B502460C
:10490000BE2000F0E9FA052000F0DAFA1046FBF7C5
:1049100056FE9FED0C1B53EC112BFBF75EFDFBF7D6
:104920007AFE80B200F0CCFA012000F0C9FAFF2034
:1049300000F0C6FA002000F0C3FABDE810400020E5
:1049400000F0BEBA666666666666044070B55E4C88
:1049500000232146A279898841F66316012A01D0F5
:104960001AB10CE0B14202D109E0B14207D10828E6
:1049700005D2DFE800F0161812140C19100E0828E2
:1049800012D2DFE800F0110406080A0C0E10802392
:104990000AE0402308E0C02306E0202304E060236F
:1049A00002E0A02300E0E02345F21055A94202D125
:1049B0004FF4585000E03620A1F51342413A03D09D
:1049C000A1F5EE42893A01D143F00803194600F0FF
:1049D00099FAA188B1420AD098062088628802D547
:1049E000904202D303E0904201D922806080608926
:1049F000A94240D100F070FA002000F061FA60890D
:104A0000401C80B200F068FA002000F059FA60897A
:104A1000801C80B200F060FA2088401EC0F30F2096
:104A200000F04EFA6089C01C80B200F055FA207880
:104A3000401EC0B200F044FAA08900F04DFA0020F8
:104A400000F03EFAA089401C80B200F045FA002038
:104A500000F036FAA089801C80B200F03DFA608830
:104A6000401EC0F30F2000F02BFAA089C01C80B2BA
:104A700000F032FA21E000F02FFA002000F020FAD6
:104A8000002000F01DFA2088401EC0F30F2000F027
:104A900017FA2078401EC0B200F012FAA08900F088
:104AA0001BFA002000F00CFA002000F009FA6088E0
:104AB000401EC0F30F2000F003FAA078BDE870405C
:104AC000401EC0B200F0FCB9A4050020F0B53B4A7E
:104AD0000D460446060A918810462F0A4089A1F522
:104AE000C853633B16D0A1F5AA43103B4CD000F04D
:104AF000F3F9304600F0E4F9E0B200F0E1F9908912
:104B000000F0EAF9384600F0DBF9E8B2BDE8F04021
:104B100000F0D6B9917931B300F0DEF9304600F0FB
:104B2000CFF9E0B200F0CCF91088401EC0F30F209E
:104B300000F0C6F91078401E5FFA80F000F0C0F96E
:104B4000908900F0C9F9384600F0BAF9E8B200F0EF
:104B5000B7F95088401EC0F30F2000F0B1F99078EB
:104B6000401EC0B2D2E71188091B491E8CB200F06A
:104B7000B3F9002000F0A4F9002000F0A1F9200A08
:104B800000F09EF9E0B2D9E700F0A6F9304600F057
:104B900097F95089401C80B200F09EF9E0B200F015
:104BA0008FF9908900F098F9384600F089F99089DA
:104BB000401C80B200F090F9A7E70000A405002097
:104BC0002DE9FF4F1D460C468A46580700D00120AC
:104BD00000EBD500690810FB01F0203A00F0FF0956
:104BE000D0B20026DFF8A4B002904BE00C2D11D01B
:104BF000102D14D0182D17D0202D45D124490298FE
:104C000001EBC0104FF00008875D380613D521482E
:104C1000026814E00298204900EB400008E01F49B8
:104C2000029801EB0010EDE702981D4900EBC0006F
:104C300001EB8000E6E70D9828B916484268214646
:104C40000098FDF773FB7806070E641CBBF80200A2
:104C5000A4B2A04218D9A4EB0A00A84209D1009836
:104C60005446401C80B20090BBF8001081420BD922
:104C700006E008F1010000F0FF08B8F1080FC4D306
:104C8000761CF6B24E45B1D3BDE8FF8FA4050020D7
:104C90007080000800000020B0680008246D000843
:104CA000147300082DE9FF4F82462DED020BFDEE37
:104CB000C00A83B01E4610EE908A1746DDF848B051
:104CC00000EE908AF8EEE00A30EE600A10EE100A6C
:104CD000FBF7BAFC41EC100B00242AE09FED211BEE
:104CE00051EC100B53EC112BFBF777FB05460091B1
:104CF000FBF772FC8146FBF751FC41EC110B00996C
:104D000053EC112B41EC105B51EC100BFBF75FFBEC
:104D100041EC100B0020CDE900700AEBC40000EB61
:104D2000C600083080B201234A46069900F085F893
:104D3000641C5C45D2DB0020CDE90070334642465E
:104D40005046069900F079F808A0CDE900700AEB0A
:104D5000C600320180B21023069900F044F809B071
:104D6000BDE8F08F00000000000024402E0000008D
:104D70002DE9FF4F81B00026DDF838A01D4693468F
:104D800081463446B0464FEA5A0727E0281B401EAA
:104D9000C1B20A2000F079FCBBFBF0F00A21B0FBA5
:104DA000F1F201FB120026B9691E8C4201DA48B10A
:104DB00001263030C2B207FB049080B25346CDF8D2
:104DC000008006E007FB049080B253462022CDF815
:104DD00000800299FFF7F4FE641CE4B2AC42D5D324
:104DE00005B0BDE8F08F2DE9F84F044600F0FF094B
:104DF00010190D46DDE90AB61FFA80F8581987B276
:104E00004FF0000A12E0444503D305EB0B004C467B
:104E100085B2BD420FD25B4629462046CDF800A0A0
:104E2000FFF7CEFE04EB5B0084B2761C3278A2F171
:104E300020005E28E7D9BDE8F88F2DE9FF4F81B04B
:104E40004FF00008DDE90EBA1E46814644460AF0DE
:104E500001054FEA5B072CE0301B401EC1B20A205F
:104E600000F013FC0399B1FBF0F00A21B0FBF1F262
:104E700001FB1200B8F1000F05D1711E8C4202DA5D
:104E800048B14FF001083030C2B207FB049080B245
:104E90005B46009508E05FEA0A6007FB049080B279
:104EA0005B4600950AD530220299FFF789FE641C03
:104EB000E4B2B442D0D305B0BDE8F08F2022F3E7CE
:104EC00001B5BDF80000ADF80000BDF800004FF0DE
:104ED000D841A1F8800008BD01B5BDF80000ADF8CB
:104EE0000000BDF800004FF0D841A1F87E0008BDD9
:104EF00003484FF0D8410089A1F87E0070470000B8
:104F0000A40500204FF0D84222F87E0F5180704750
:104F100010B58EB01C216846FBF7ADF91C2107A81F
:104F2000FBF7A9F91B484FF02041102201601A49F4
:104F30004160062181600021C160C0E904128161E5
:104F4000C16113020162C0E909139302C0E90B13A6
:104F5000416381634164022000900DF10C0C112427
:104F60008CE816000F2005230691CDE90103099373
:104F7000CDE907100AA880E816000D9107AA694636
:104F80000448FCF73DFE002801D0FBF733FE0EB0CD
:104F900010BD000078450020040100A02DE9F04379
:104FA00087B014216846FBF766F94F480025016871
:104FB00041F010010160016801F0100105910168E4
:104FC00041F080010160016801F0800105910168F4
:104FD00041F004010160016801F0040105910168DC
:104FE00041F001010160016801F0010105910168D2
:104FF00041F002010160016801F0020105910168C0
:1050000041F020010160016801F020010591016873
:1050100041F008010160016801F008010591016893
:1050200041F0400101600068DFF8C08000F04000FE
:105030000590002207214046FCF7FFF80122DFF827
:10504000B090D70339464846FCF7F7F81C20CDE965
:1050500000050124694602942648FBF7F1FF03206E
:105060008DE83100694640460395FBF7E9FF0420CF
:10507000CDE900040220CDE9024069464046FBF735
:10508000DFFFCDE9004569461B480294FBF7D8FFD6
:1050900010204FF48816CDE9000669460295404677
:1050A000FBF7CEFFCDE90046694648460294FBF780
:1050B000C7FF0097CDE90145694648460395FBF7D0
:1050C000BFFF002211460620FCF73AF90620FCF744
:1050D0002AF9002211460A20FCF732F90A20FCF7CF
:1050E00022F907B0BDE8F0833038024000080240E2
:1050F000000402400010024000000240104810B5B9
:105100000E4901604FF482714160002181600122EB
:10511000C160C0E90412520282612822C0E907215D
:10512000416281620A21C162FCF7DEFB002803D0E4
:10513000BDE81040FBF75EBD10BD0000003C004024
:10514000C84500200C4810B50A4901604FF4E13110
:105150004160002181600C22C160C0E904128161BC
:10516000C161FCF7CBFE002803D0BDE81040FBF77F
:1051700041BD10BD0010014020460020FEE7FEE7C3
:10518000704710B5A0214220FBF7ECFB0A20FBF78B
:10519000D7FE02214120FBF7E5FB00214420FBF76D
:1051A000E1FB00214520FBF7DDFB2C214620FBF72E
:1051B000D9FB02214920FBF7D5FB0321BDE81040B4
:1051C0004A20FBF7CFBB10B5A3214220FBF7CAFB57
:1051D0000A20FBF7B5FE02214120FBF7C3FB0521A6
:1051E0004420FBF7BFFB05214520FBF7BBFB2C212F
:1051F0004620FBF7B7FB02214920FBF7B3FB032155
:10520000BDE810404A20FBF7ADBB0000F8B51546DD
:105210000E460B46009204460122022100F02CF8B3
:10522000A0B9134813490068B0FBF1F04FF47A714C
:10523000484300906068B0F5827F0DD1334600226C
:1052400080212046009500F017F870B1606D40F0A5
:10525000200060650320F8BD009830B1401E00902A
:1052600020688068C0430006F6D50020F8BD000025
:105270009C05002000366E012DE9F8431E4691463C
:1052800088460446089DFBF7DDFF401B351AFBF7F7
:10529000D9FF074625480068C0F3CB30684338E0A3
:1052A000701C37D0FBF7CEFFC01BA84203D215B14C
:1052B000009860B32CE02068416821F0E001416073
:1052C0006068B0F5827F0BD1A068B0F5004F02D0C6
:1052D000B0F5806F04D12068016821F040010160C1
:1052E000A06AB0F5005F09D12068016821F400517F
:1052F00001602068016841F400510160012084F8D8
:105300005100002084F850000320BDE8F8830025F8
:10531000401E00902068816838EA010004D0002116
:105320004945BDD10020F0E70121F9E79C050020A7
:105330007047FBF78DBF000030B593B03021684651
:10534000FAF799FF14210CA8FAF795FF1D480025DC
:10535000016841F080510160006800F080501190B8
:105360001948016841F4804101600068022400F49A
:105370008040119001200390102004900094069426
:105380000820CDE90750A820CDE9090404200B909E
:105390006846FCF7F3F808B172B6FEE70CA90F20D7
:1053A00081E831004FF4A0500F904FF480501090DE
:1053B00005210CA8FBF7F6FF002801D072B6FEE726
:1053C00013B030BD40380240007000400248016810
:1053D00041F470010160704788ED00E010B5806B0A
:1053E0000021C185C184FCF750FC10BD01680C315F
:1053F00051E8002F22F4907241E80023002BF5D1F0
:105400000168143151E8002F22F0010241E8002325
:10541000002BF5D1016B012909D101680C3151E84C
:10542000002F22F0100241E80023002BF5D12021AB
:1054300080F8421000210163704708B590F84210CF
:10544000222901D0022008BD82684FF480539A427D
:1054500001D1016921B1816A9A421BD04AB10AE0A7
:105460000268816A5268C2F308020A80816A891C54
:1054700008E0026972B10268526802F07F020A70A5
:10548000816A491C8162C18D491E0904090CC185CC
:1054900003D01BE002685268F1E70168CA6822F095
:1054A0002002CA600168CA6822F48072CA6001687A
:1054B0004A6922F001024A61202180F8421000214D
:1054C0004163026B012A03D0FCF788FD002008BD70
:1054D000016301680C3151E8002F22F0100241E80D
:1054E0000023002BF5D101680A68D20602D50A68AC
:1054F00049680091818DFCF7C7FBE7E770B504466A
:1055000000680169E26821F4405111430161216999
:10551000A068E26908436169114308432168CA68C9
:1055200049F20C639A430243CA6020684169A26948
:1055300021F440711143416131492068884202D011
:105540003049884202D1FBF7D7FF01E0FBF7C4FFE7
:10555000E2690023192164253226B2F5004F626802
:1055600028D0A0FB0101930F9200FAF72BFE014611
:10557000B0FBF5F06FF01802504301EB800006EB32
:105580000010B0FBF5F000F0F002B1FBF5F002EB1B
:105590000012B1FBF5F06FF01803584301EB8000E7
:1055A00006EB0010B0FBF5F000F00F00216810448E
:1055B000886070BDA0FB010192185B41FAF702FE02
:1055C0000146B0FBF5F00201B1FBF5F06FF01803F6
:1055D000584301EB800006EBC000B0FBF5F000F093
:1055E000F80002EB4002B1FBF5F0584301EB8000FC
:1055F00006EBC000B0FBF5F000F00700D6E70000B6
:1056000000100140001401402DE9F8439846174668
:105610000D460446089E24E0701C22D0FBF712FEC3
:10562000A0EB0800B0421AD8CEB12068C168490783
:1056300017D5802D15D0402D13D00168C943090717
:105640000FD401680025406800902046FFF7CEFE89
:105650000820606484F840500120BDE8F8830320EE
:10566000FBE72068006835EA000004D00020B8425B
:10567000D2D00020F1E70120F9E700000148FCF753
:1056800005BB000020460020FEE70246012000E0A6
:105690005043491EC9B2FBD2704700000FB4054BFE
:1056A00010B503A9044A029800F0EAF810BC5DF8AE
:1056B00014FB00000D660008A00500200907090E74
:1056C000002804DB00F1E02080F80014704700F0AF
:1056D0000F0000F1E02080F8141D704702E008C8B8
:1056E000121F08C1002AFAD170477047002001E05C
:1056F00001C1121F002AFBD1704700002DE9FF5F96
:1057000082B00021DDE90430020DDDF840B0034332
:1057100018D044F61050A2F2FF32424315141198EB
:1057200001281FD0A5EB0B00401C5FEA000A4FF0D8
:1057300000064E4FDFF83891B046504615D5CAF1F5
:10574000000413E0119801244AA3012801D16FEA53
:105750000B010298119AC0E90031C0E9024206B07B
:10576000BDE8F09FCBF10000DFE704460021404A8E
:10577000491842EB0450CDE9001012E0E00707D0D1
:1057800032463B4640464946FAF727FE8046894660
:1057900032463B4610461946FAF71FFE06460F46AC
:1057A0006410002CEAD1DDE90401DDE90023BAF13F
:1057B000000F06DAFAF711FE42464B46FAF70DFEE5
:1057C00005E0FAF77CFE42464B46FAF778FE0446BF
:1057D0000E460022284BFAF74BFF03D84FF0FF305C
:1057E000014607E00022254B20463146FAF74EFDE0
:1057F000FAF7D9FF102409E0002C0ADB0A22002363
:10580000FAF7E0FC039B30321A55641E50EA01029D
:10581000F2D1641C039AC4F111031444119A012AB1
:1058200003D0012208430DD10AE0084304D0002030
:105830004FF0110B119072E7A3EB0B056D1E0DE0FD
:105840005B4504DD4FF0000205F1010504E003DAD9
:105850004FF00002A5F10105002AECD00298119941
:10586000C0E90231C0E9004579E7000000001440BA
:105870000000F03F300000000000F0430000E03F77
:105880002DE9FF4F95B09A46884606460025EEE181
:10589000252877D100242746F94A0121039400E006
:1058A000044316F8013F203B01FA03F01042F7D100
:1058B00030782A2811D06FF02F033078A0F1300211
:1058C000092A16D8039A44F0020402EB820203EB81
:1058D00042021044761C0390EFE758F8042B039221
:1058E000002A03DA504244F40054039044F00204C6
:1058F000761C30782E2816D116F8010F44F00404D7
:105900002A280DD06FF02F023078A0F13003092B38
:1059100009D807EB870302EB4303C718761CF3E7AC
:1059200058F8047B761C30786C280FD006DC4C28A5
:1059300017D068280DD06A2814D104E0742810D03C
:105940007A280FD10DE044F400140AE044F48014E6
:1059500001E044F440147278824202D104F58014CC
:10596000761C761C307866280BD013DC582877D04C
:1059700009DC002875D04528F6D04628F4D0472801
:105980001AD193E118E0632835D0642879D06528CE
:1059900012D18BE1702873D008DC6728F1D0692818
:1059A0006FD06E280DD06F2806D1ACE073282CD0B4
:1059B000752874D0782853D05246179990476D1C9B
:1059C00054E1C4F30250022809D003280DD0D8F8BE
:1059D000001004280DD00D6008F1040846E1D8F845
:1059E0000010EA17C1E90052F6E7D8F800100D8060
:1059F000F2E70D70F0E718F8041B8DF80010002096
:105A00008DF80100EB46012003E058F804BB4FF08D
:105A1000FF3061074FF0000102D40DE009F10101F0
:105A20008946B9420FDA8145F8DB1BF809100029D5
:105A3000F4D108E009F1010189468142FADB1BF843
:105A400009100029F6D103985346A0EB0907214617
:105A50003846179A00F080FA284400EB090507E061
:105A600044E008E10DE01BF8010B524617999047FE
:105A7000B9F10109F7D2534621463846179AF2E0A8
:105A800039E00A21C4F302524FF0000B0091022AC0
:105A900006D058F8040BC117032A09D00AE023E006
:105AA00008F1070020F00702F2E80201904605E045
:105AB00000B2C117042A01D140B2C117002906DA89
:105AC0000A460021404261EB02012D2202E022053C
:105AD00004D52B228DF80420012203E0E20701D037
